{
  "abi": [
    {
      "anonymous": false,
      "inputs": [
        {
          "indexed": false,
          "internalType": "uint256",
          "name": "id",
          "type": "uint256"
        },
        {
          "indexed": false,
          "internalType": "string",
          "name": "category",
          "type": "string"
        },
        {
          "indexed": false,
          "internalType": "string",
          "name": "prompt",
          "type": "string"
        },
        {
          "indexed": false,
          "internalType": "string",
          "name": "answer",
          "type": "string"
        }
      ],
      "name": "FlashCardCreated",
      "type": "event"
    },
    {
      "inputs": [
        {
          "internalType": "uint256",
          "name": "",
          "type": "uint256"
        }
      ],
      "name": "cardToOwner",
      "outputs": [
        {
          "internalType": "address",
          "name": "",
          "type": "address"
        }
      ],
      "stateMutability": "view",
      "type": "function"
    },
    {
      "inputs": [
        {
          "internalType": "address",
          "name": "",
          "type": "address"
        },
        {
          "internalType": "uint256",
          "name": "",
          "type": "uint256"
        }
      ],
      "name": "cards",
      "outputs": [
        {
          "internalType": "uint256",
          "name": "id",
          "type": "uint256"
        },
        {
          "internalType": "string",
          "name": "category",
          "type": "string"
        },
        {
          "internalType": "string",
          "name": "prompt",
          "type": "string"
        },
        {
          "internalType": "string",
          "name": "answer",
          "type": "string"
        }
      ],
      "stateMutability": "view",
      "type": "function"
    },
    {
      "inputs": [
        {
          "internalType": "address",
          "name": "_owner",
          "type": "address"
        },
        {
          "internalType": "string",
          "name": "_category",
          "type": "string"
        }
      ],
      "name": "getCardsByCategory",
      "outputs": [
        {
          "components": [
            {
              "internalType": "uint256",
              "name": "id",
              "type": "uint256"
            },
            {
              "internalType": "string",
              "name": "category",
              "type": "string"
            },
            {
              "internalType": "string",
              "name": "prompt",
              "type": "string"
            },
            {
              "internalType": "string",
              "name": "answer",
              "type": "string"
            }
          ],
          "internalType": "struct FlashCard.Card[]",
          "name": "",
          "type": "tuple[]"
        }
      ],
      "stateMutability": "view",
      "type": "function"
    },
    {
      "inputs": [
        {
          "internalType": "address",
          "name": "_owner",
          "type": "address"
        }
      ],
      "name": "getCardsByOwner",
      "outputs": [
        {
          "components": [
            {
              "internalType": "uint256",
              "name": "id",
              "type": "uint256"
            },
            {
              "internalType": "string",
              "name": "category",
              "type": "string"
            },
            {
              "internalType": "string",
              "name": "prompt",
              "type": "string"
            },
            {
              "internalType": "string",
              "name": "answer",
              "type": "string"
            }
          ],
          "internalType": "struct FlashCard.Card[]",
          "name": "",
          "type": "tuple[]"
        }
      ],
      "stateMutability": "view",
      "type": "function"
    },
    {
      "inputs": [
        {
          "internalType": "string",
          "name": "_category",
          "type": "string"
        },
        {
          "internalType": "string",
          "name": "_prompt",
          "type": "string"
        },
        {
          "internalType": "string",
          "name": "_answer",
          "type": "string"
        }
      ],
      "name": "saveCard",
      "outputs": [],
      "stateMutability": "nonpayable",
      "type": "function"
    }
  ],
  "bytecode": {
    "object": "0x608060405234801561001057600080fd5b50610eab806100206000396000f3fe608060405234801561001057600080fd5b50600436106100575760003560e01c806316ce87a61461005c5780632345d330146100855780639fb373931461009a578063eba73c7c146100bd578063ffb976ec146100d0575b600080fd5b61006f61006a366004610a46565b610111565b60405161007c9190610af0565b60405180910390f35b610098610093366004610b9c565b610499565b005b6100ad6100a8366004610c24565b61056d565b60405161007c9493929190610c4e565b61006f6100cb366004610c98565b610752565b6100f96100de366004610cba565b6000602081905290815260409020546001600160a01b031681565b6040516001600160a01b03909116815260200161007c565b6001600160a01b0382166000908152600260209081526040808320805482518185028101850190935280835260609493849084015b8282101561033857838290600052602060002090600402016040518060800160405290816000820154815260200160018201805461018390610cd3565b80601f01602080910402602001604051908101604052809291908181526020018280546101af90610cd3565b80156101fc5780601f106101d1576101008083540402835291602001916101fc565b820191906000526020600020905b8154815290600101906020018083116101df57829003601f168201915b5050505050815260200160028201805461021590610cd3565b80601f016020809104026020016040519081016040528092919081815260200182805461024190610cd3565b801561028e5780601f106102635761010080835404028352916020019161028e565b820191906000526020600020905b81548152906001019060200180831161027157829003601f168201915b505050505081526020016003820180546102a790610cd3565b80601f01602080910402602001604051908101604052809291908181526020018280546102d390610cd3565b80156103205780601f106102f557610100808354040283529160200191610320565b820191906000526020600020905b81548152906001019060200180831161030357829003601f168201915b50505050508152505081526020019060010190610146565b5050505090506000815167ffffffffffffffff81111561035a5761035a6109a3565b6040519080825280602002602001820160405280156103b657816020015b6103a36040518060800160405280600081526020016060815260200160608152602001606081525090565b8152602001906001900390816103785790505b5090506000805b835181101561048e57856040516020016103d79190610d0d565b604051602081830303815290604052805190602001208482815181106103ff576103ff610d29565b60200260200101516020015160405160200161041b9190610d0d565b604051602081830303815290604052805190602001200361047c5783818151811061044857610448610d29565b602002602001015183838151811061046257610462610d29565b6020026020010181905250818061047890610d3f565b9250505b8061048681610d3f565b9150506103bd565b509095945050505050565b336000908152600260208181526040808420805482516080810184528181528085018a8152938101899052606081018890529484526001808201835591865292909420835160048402909101908155905191938392908201906104fc9082610db5565b50604082015160028201906105119082610db5565b50606082015160038201906105269082610db5565b5050507f30232299c59b0f0695a6ef30cc114193147106d5de40d3801af34c960fd0c6478286868660405161055e9493929190610c4e565b60405180910390a15050505050565b6002602052816000526040600020818154811061058957600080fd5b9060005260206000209060040201600091509150508060000154908060010180546105b390610cd3565b80601f01602080910402602001604051908101604052809291908181526020018280546105df90610cd3565b801561062c5780601f106106015761010080835404028352916020019161062c565b820191906000526020600020905b81548152906001019060200180831161060f57829003601f168201915b50505050509080600201805461064190610cd3565b80601f016020809104026020016040519081016040528092919081815260200182805461066d90610cd3565b80156106ba5780601f1061068f576101008083540402835291602001916106ba565b820191906000526020600020905b81548152906001019060200180831161069d57829003601f168201915b5050505050908060030180546106cf90610cd3565b80601f01602080910402602001604051908101604052809291908181526020018280546106fb90610cd3565b80156107485780601f1061071d57610100808354040283529160200191610748565b820191906000526020600020905b81548152906001019060200180831161072b57829003601f168201915b5050505050905084565b6001600160a01b0381166000908152600260209081526040808320805482518185028101850190935280835260609492939192909184015b8282101561097c5783829060005260206000209060040201604051806080016040529081600082015481526020016001820180546107c790610cd3565b80601f01602080910402602001604051908101604052809291908181526020018280546107f390610cd3565b80156108405780601f1061081557610100808354040283529160200191610840565b820191906000526020600020905b81548152906001019060200180831161082357829003601f168201915b5050505050815260200160028201805461085990610cd3565b80601f016020809104026020016040519081016040528092919081815260200182805461088590610cd3565b80156108d25780601f106108a7576101008083540402835291602001916108d2565b820191906000526020600020905b8154815290600101906020018083116108b557829003601f168201915b505050505081526020016003820180546108eb90610cd3565b80601f016020809104026020016040519081016040528092919081815260200182805461091790610cd3565b80156109645780601f1061093957610100808354040283529160200191610964565b820191906000526020600020905b81548152906001019060200180831161094757829003601f168201915b5050505050815250508152602001906001019061078a565b505050509050919050565b80356001600160a01b038116811461099e57600080fd5b919050565b634e487b7160e01b600052604160045260246000fd5b600082601f8301126109ca57600080fd5b813567ffffffffffffffff808211156109e5576109e56109a3565b604051601f8301601f19908116603f01168101908282118183101715610a0d57610a0d6109a3565b81604052838152866020858801011115610a2657600080fd5b836020870160208301376000602085830101528094505050505092915050565b60008060408385031215610a5957600080fd5b610a6283610987565b9150602083013567ffffffffffffffff811115610a7e57600080fd5b610a8a858286016109b9565b9150509250929050565b60005b83811015610aaf578181015183820152602001610a97565b83811115610abe576000848401525b50505050565b60008151808452610adc816020860160208601610a94565b601f01601f19169290920160200192915050565b60006020808301818452808551808352604092508286019150828160051b87010184880160005b83811015610b8e57603f19898403018552815160808151855288820151818a870152610b4582870182610ac4565b9150508782015185820389870152610b5d8282610ac4565b91505060608083015192508582038187015250610b7a8183610ac4565b968901969450505090860190600101610b17565b509098975050505050505050565b600080600060608486031215610bb157600080fd5b833567ffffffffffffffff80821115610bc957600080fd5b610bd5878388016109b9565b94506020860135915080821115610beb57600080fd5b610bf7878388016109b9565b93506040860135915080821115610c0d57600080fd5b50610c1a868287016109b9565b9150509250925092565b60008060408385031215610c3757600080fd5b610c4083610987565b946020939093013593505050565b848152608060208201526000610c676080830186610ac4565b8281036040840152610c798186610ac4565b90508281036060840152610c8d8185610ac4565b979650505050505050565b600060208284031215610caa57600080fd5b610cb382610987565b9392505050565b600060208284031215610ccc57600080fd5b5035919050565b600181811c90821680610ce757607f821691505b602082108103610d0757634e487b7160e01b600052602260045260246000fd5b50919050565b60008251610d1f818460208701610a94565b9190910192915050565b634e487b7160e01b600052603260045260246000fd5b600060018201610d5f57634e487b7160e01b600052601160045260246000fd5b5060010190565b601f821115610db057600081815260208120601f850160051c81016020861015610d8d5750805b601f850160051c820191505b81811015610dac57828155600101610d99565b5050505b505050565b815167ffffffffffffffff811115610dcf57610dcf6109a3565b610de381610ddd8454610cd3565b84610d66565b602080601f831160018114610e185760008415610e005750858301515b600019600386901b1c1916600185901b178555610dac565b600085815260208120601f198616915b82811015610e4757888601518255948401946001909101908401610e28565b5085821015610e655787850151600019600388901b60f8161c191681555b5050505050600190811b0190555056fea2646970667358221220270d69ea4bc05ca6d2c61293313b11e56f5b611f54668916ce34d17d8e89914064736f6c634300080f0033",
    "linkReferences": {}
  },
  "methodIdentifiers": {
    "cardToOwner(uint256)": "ffb976ec",
    "cards(address,uint256)": "9fb37393",
    "getCardsByCategory(address,string)": "16ce87a6",
    "getCardsByOwner(address)": "eba73c7c",
    "saveCard(string,string,string)": "2345d330"
  },
  "id": 16
}